:020000040800F2
:100000000050002039090008A9050008B5050008BE
:10001000BB050008C1050008C70500080000000076
:10002000000000000000000000000000CD050008F6
:10003000D905000800000000E5050008F1050008EA
:100040008109000881090008810900088109000868
:100050008109000881090008810900088109000858
:100060008109000881090008810900088109000848
:100070008109000881090008810900088109000838
:100080008109000881090008810900088109000828
:100090008109000881090008810900088109000818
:1000A0008109000881090008810900088109000808
:1000B00081090008810900088109000881090008F8
:1000C00081090008810900088109000881090008E8
:1000D00081090008810900088109000881090008D8
:1000E000810900088109000881090008000000005A
:1000F0000000000000000000000000000000000000
:0C01000000000000000000005FF808F1A3
:10010C0010B5054C237833B9044B13B10448AFF345
:10011C0000800123237010BD0400002000000000AB
:10012C00CC09000808B5034B1BB103490348AFF3D6
:10013C00008008BD0000000008000020CC09000869
:10014C0080B485B000AF78607B6803F00703FB6078
:10015C000C4BDB68BB60BA684FF6FF031340BB6007
:10016C00FB681A02BB68134343F0BF6343F40033CC
:10017C00BB60044ABB68D36000BF1437BD4680BC6B
:10018C00704700BF00ED00E080B400AF044B1B686B
:10019C00034A43F48033136000BFBD4680BC7047F4
:1001AC000010024080B400AF064B1B6803F4003310
:1001BC00B3F5003F0CBF01230023DBB21846BD464C
:1001CC0080BC70470010024080B483B000AF7860F0
:1001DC00064B5B6823F0030204497B6813434B60B6
:1001EC0000BF0C37BD4680BC704700BF00100240FA
:1001FC0080B400AF034B5B6803F00C031846BD469C
:10020C0080BC70470010024080B483B000AF7860AF
:10021C00064B5B6823F0F00204497B6813434B6088
:10022C0000BF0C37BD4680BC704700BF00100240B9
:10023C0080B483B000AF7860064B5B6823F4E06257
:10024C0004497B6813434B6000BF0C37BD4680BC30
:10025C00704700BF0010024080B483B000AF7860DC
:10026C00064B5B6823F4605204497B6813434B6074
:10027C0000BF0C37BD4680BC704700BF0010024069
:10028C0080B400AF044B1B68034A43F080731360C7
:10029C0000BFBD4680BC70470010024080B400AF68
:1002AC00064B1B6803F00073B3F1007F0CBF0123F6
:1002BC000023DBB21846BD4680BC704700100240DC
:1002CC0080B483B000AF78603960084B5B6823F46E
:1002DC007C127B6803F440313B680B4303491343A6
:1002EC004B6000BF0C37BD4680BC7047001002400D
:1002FC0080B485B000AF7860084BDA6907497B6839
:10030C001343CB61054BDA697B681340FB60FB68D8
:10031C0000BF1437BD4680BC704700BF00100240C0
:10032C0080B485B000AF7860084B9A6907497B6848
:10033C0013438B61054B9A697B681340FB60FB6828
:10034C0000BF1437BD4680BC704700BF0010024090
:10035C0080B483B000AF7860064B1B6823F00702B3
:10036C0004497B6813430B6000BF0C37BD4680BC4F
:10037C00704700BF0020024080B400AF034B1B68E5
:10038C0003F007031846BD4680BC704700200240AE
:10039C0080B483B000AF786039603B681B0A9AB2B6
:1003AC007B681A6100BF0C37BD4680BC704780B4B7
:1003BC0083B000AF786039603B681B0A9AB27B68E7
:1003CC005A6100BF0C37BD4680BC704780B400AF8B
:1003DC00074B5B68064A23F0E0635360044B5B6891
:1003EC00034A43F00073536000BFBD4680BC7047A6
:1003FC000000014080B582B000AF0120FFF790FFF4
:10040C004FF08050FFF774FF0320FFF799FEFFF7C2
:10041C00DDFF00F02BF800F097F800237B6006E07E
:10042C0042F2107000F068FA7B6801337B607B68E5
:10043C00B3F5487FF4DB0B490B48FFF7A9FF00230A
:10044C003B6006E042F2107000F056FA3B68013354
:10045C003B603B68B3F5FA7FF4DB02490248FFF7D7
:10046C00A6FFDAE7818001040008014080B500AFE7
:10047C000120FFF76DFFFFF77FFF0346012B01D033
:10048C0000F034F8FFF780FE00BFFFF78BFE034649
:10049C00012BFAD14FF480114FF48030FFF710FF8D
:1004AC00FFF7EEFE00BFFFF7F9FE0346012BFAD172
:1004BC000020FFF7A9FE4FF4A060FFF7B9FE002063
:1004CC00FFF7CAFE0220FFF77FFE00BFFFF790FE8A
:1004DC000346082BFAD1044800F0BEF9024800F09C
:1004EC00C9F900BF80BD00BF006CDC0280B400AF56
:1004FC0000BFBD4680BC704780B485B000AF78604B
:10050C00084B9A6907497B6813438B61054B9A69C1
:10051C007B681340FB60FB6800BF1437BD4680BC92
:10052C00704700BF0010024080B483B000AF786009
:10053C0039603B681B0A9AB27B685A6100BF0C3762
:10054C00BD4680BC7047000080B586B000AF3B1D37
:10055C0000221A605A609A60DA601A612020FFF754
:10056C00CBFF0420FFF7C8FF0A490B48FFF7DCFF5D
:10057C00084B7B600123BB600223FB6000233B61C3
:10058C003B1D1946044800F0EBF800BF1837BD4678
:10059C0080BD00BF818001040008014080B400AF21
:1005AC0000BFBD4680BC704780B400AFFEE780B48E
:1005BC0000AFFEE780B400AFFEE780B400AFFEE70B
:1005CC0080B400AF00BFBD4680BC704780B400AFA4
:1005DC0000BFBD4680BC704780B400AF00BFBD46B5
:1005EC0080BC704780B400AF00BFBD4680BC704774
:1005FC0090B488B000AFF860B9607A60FB681A46B6
:10060C00BB681B0E13441C462268BB687B617B696C
:10061C0093FAA3F33B613B69B3FA83F3DBB29B0020
:10062C000F2101FA03F3DB431A40BB68FB61FB6942
:10063C0093FAA3F3BB61BB69B3FA83F3DBB29B0000
:10064C00796801FA03F31343236000BF2037BD46DA
:10065C0090BC704790B488B000AFF860B9607A6015
:10066C00FB681A46BB681B0E13441C462268BB6809
:10067C007B617B6993FAA3F33B613B69B3FA83F328
:10068C00DBB29B00032101FA03F3DB431A40BB6886
:10069C00FB61FB6993FAA3F3BB61BB69B3FA83F308
:1006AC00DBB29B00796801FA03F31343236000BFAC
:1006BC002037BD4690BC704790B488B000AFF8604E
:1006CC00B9607A60FB681A46BB681B0E13441C4663
:1006DC002268BB687B617B6993FAA3F33B613B693E
:1006EC00B3FA83F3DBB29B00042101FA03F3DB437F
:1006FC001A40BB68FB61FB6993FAA3F3BB61BB694E
:10070C00B3FA83F3DBB29B00796801FA03F313436A
:10071C00236000BF2037BD4690BC704780B487B0C3
:10072C0000AFF860B9607A60FB68DA68BB681B0AD6
:10073C00DB431A40BB681B0A7B617B6993FAA3F30A
:10074C003B613B69B3FA83F3DBB219467B688B40A0
:10075C001A43FB68DA6000BF1C37BD4680BC70478B
:10076C0080B588B000AF786039603B681B681B02AD
:10077C001B0C7B617B693B613B6993FAA3F3FB60C8
:10078C00FB68B3FA83F3DBB2FB6140E00122FB6947
:10079C009A407B691340002B36D0FB69072B06D897
:1007AC0040F20112FB6902FA03F3BB6108E0FB693A
:1007BC00083B4FF0011202FA03F343F08063BB6174
:1007CC003B685B681A46B9697868FFF711FF3B68AC
:1007DC001B691A46B9697868FFF7A0FF3B685B682C
:1007EC00012B03D03B685B68092B0DD13B689B68E0
:1007FC001A46B9697868FFF72DFF3B68DB681A4623
:10080C00B9697868FFF758FFFB690133FB617A69B6
:10081C00FB6922FA03F3002BB8D1002318462037CA
:10082C00BD4680BD80B483B000AF786039607A6813
:10083C003B68B2FBF3F3074A013B5360054B0022C4
:10084C009A60044B05221A6000BF0C37BD4680BC71
:10085C00704700BF10E000E080B582B000AF786058
:10086C004FF47A717868FFF7DDFF00BF0837BD469B
:10087C0080BD000080B483B000AF7860034A7B6811
:10088C00136000BF0C37BD4680BC704700000020D1
:10089C0080B400AF154B1B68144A43F0010313607E
:1008AC00124B5A681149124B13404B600F4B1B688B
:1008BC000E4A23F0847323F4803313600B4B1B68B4
:1008CC000A4A23F480231360084B5B68074A23F41D
:1008DC00FE035360054B4FF41F029A60054B4FF01B
:1008EC0000629A6000BFBD4680BC70470010024099
:1008FC000000FFF800ED00E080B485B000AF0346C7
:10090C00FB800023FB6006E000BF00BF00BF00BF00
:10091C00FB680133FB60FB88FA689A42F4DB00BF8A
:10092C0000BF1437BD4680BC70470000002103E0B7
:10093C000B4B5B58435004310A480B4B42189A42FC
:10094C00F6D30A4A02E0002342F8043B084B9A42D1
:10095C00F9D3FFF79DFF00F00FF8FFF74BFD704741
:10096C00EC09000800000020040000200400002016
:10097C0020000020FEE7000070B500260C4D0D4C49
:10098C00641BA410A64209D100F01AF800260A4DE7
:10099C000A4C641BA410A64205D170BD55F8043B4B
:1009AC0098470136EEE755F8043B98470136F2E7D5
:1009BC00E4090008E4090008E4090008E809000853
:1009CC00F8B500BFF8BC08BC9E467047F8B500BF30
:0809DC00F8BC08BC9E46704700
:0409E40031010008D5
:0409E8000D010008F5
:0409EC000024F400EF
:0400000508000939AD
:00000001FF
