:020000040800F2
:1000000000500020DD040008490300084B030008ED
:100010004D0300084F0300085103000800000000D2
:100020000000000000000000000000005303000872
:10003000550300080000000057030008590300089A
:1000400025050008250500082505000825050008E8
:1000500025050008250500082505000825050008D8
:1000600025050008250500082505000825050008C8
:1000700025050008250500082505000825050008B8
:1000800025050008250500082505000825050008A8
:100090002505000825050008250500082505000898
:1000A0002505000825050008250500082505000888
:1000B0002505000825050008250500082505000878
:1000C0002505000825050008250500082505000868
:1000D0002505000825050008250500082505000858
:1000E000250500082505000825050008000000007A
:1000F0000000000000000000000000000000000000
:0C01000000000000000000005FF808F1A3
:10010C0010B5054C237833B9044B13B10448AFF345
:10011C0000800123237010BD0400002000000000AB
:10012C007005000808B5034B1BB103490348AFF336
:10013C00008008BD000000000800002070050008C9
:10014C0010B5234A136823F0070343F0010313602F
:10015C001368A2F58052136843F4803313601D4B6F
:10016C001B6813F4003FFAD01A4A536823F47C132B
:10017C0043F488135360136843F080731360154B7A
:10018C001B6813F0007FFAD0124B5A6822F0F00271
:10019C005A605A6822F4E06242F4A0625A605A68CB
:1001AC0022F460525A605A6822F0030242F00202B2
:1001BC005A60084B5B6803F00C03082BF9D1064C12
:1001CC00204600F03FF9204600F04CF910BD00BF6E
:1001DC000020024000100240006CDC0210B582B01E
:1001EC00214B9A6942F001029A619A6902F001026C
:1001FC000192019ADA6942F08052DA61DB6903F00C
:10020C0080530093009B1949CA6822F4E0621204DF
:10021C00120C174B1343CB60164B5A6822F0E0625A
:10022C005A605A6842F080625A60FFF789FF00F00A
:10023C0025F810E0104B4FF4C0721A610024312CD9
:10024C0005DC42F2107000F039F90134F7E70A4B83
:10025C004FF4C0725A610024312CEBDC42F2107066
:10026C0000F02CF90134F7E70010024000ED00E03B
:10027C000003FA05000001400008014030B58BB0C6
:10028C000024079408940994254B9A6942F01002B3
:10029C009A619A6902F010020492049A9A6942F0E7
:1002AC0020029A619A6902F020020392039A9A69D9
:1002BC0042F004029A619A6902F004020292029AD4
:1002CC009A6942F008029A619B6903F00803019352
:1002DC00019B144D4FF4C0736B61134B0593069443
:1002EC0005A9124800F033F8114B0593069405A9A3
:1002FC00284600F02CF80F4B05930123069302239C
:10030C000793089405A9284600F021F86FF07B4369
:10031C000593069405A9084800F019F80BB030BDF8
:10032C000010024000080140E000E0040010014011
:10033C00FF7FFE0481800104000C01407047FEE742
:10034C00FEE7FEE7FEE77047704770477047F0B571
:10035C000D68C5F30F2595FAA5F2B2FA82F235E0D5
:10036C00A2F108044FF00113A34043F0806339E07D
:10037C00C45993FAA3F6B6FA86F6B6004FF0030CFE
:10038C000CFA06F624EA060C93FAA3F6B6FA86F6ED
:10039C00B6008C6804FA06F646EA0C06C651CC6820
:1003AC0093FAA3FCBCFA8CFC4FEA8C0C4FF0040EB5
:1003BC000EFA0CFC26EA0C0693FAA3F3B3FA83F3B9
:1003CC009B0004FA03F33343C351013235FA02F3B1
:1003DC0035D0012393402B42F7D0072AC0D840F2E6
:1003EC00011393404E681F0EC45993FAA3FCBCFA38
:1003FC008CFC4FEA8C0C4FF00F0E0EFA0CFC24EA1E
:10040C000C0493FAA3FCBCFA8CFC4FEA8C0C06FA95
:10041C000CF63443C451C6681C0A26EA132C94FA11
:10042C00A4F4B4FA84F40E6906FA04F44CEA040455
:10043C00C4604C68012C9BD0092CC6D198E70020D5
:10044C00F0BD0000054BA3FB00239B09013B044AB4
:10045C00536000239360052313607047D34D6210E3
:10046C0010E000E0014B1860704700BF0000002056
:10047C000F4B1A6842F001021A6059680D4A0A4083
:10048C005A601A6822F0847222F480321A601A6858
:10049C0022F480221A605A6822F4FE025A604FF449
:1004AC001F029A60044B4FF000629A60704700BFC5
:1004BC00001002400000FFF800ED00E0002398421D
:1004CC0005DD00BF00BF00BF00BF0133F7E7704779
:1004DC00002103E00B4B5B58435004310A480B4B93
:1004EC0042189A42F6D30A4A02E0002342F8043B2F
:1004FC00084B9A42F9D3FFF7BBFF00F00FF8FFF758
:10050C006DFE7047900500080000002004000020DC
:10051C000400002020000020FEE7000070B500263B
:10052C000C4D0D4C641BA410A64209D100F01AF816
:10053C0000260A4D0A4C641BA410A64205D170BDBE
:10054C0055F8043B98470136EEE755F8043B9847BD
:10055C000136F2E7880500088805000888050008C0
:10056C008C050008F8B500BFF8BC08BC9E46704767
:0C057C00F8B500BFF8BC08BC9E467047F4
:040588003101000835
:04058C000D01000855
:040590000024F4004F
:04000005080004DD0E
:00000001FF
