:020000040800F2
:10000000005000207D040008E9020008EB0200080F
:10001000ED020008EF020008F102000800000000F5
:10002000000000000000000000000000F3020008D3
:10003000F502000800000000F7020008F9020008BD
:10004000C5040008C5040008C5040008C50400086C
:10005000C5040008C5040008C5040008C50400085C
:10006000C5040008C5040008C5040008C50400084C
:10007000C5040008C5040008C5040008C50400083C
:10008000C5040008C5040008C5040008C50400082C
:10009000C5040008C5040008C5040008C50400081C
:1000A000C5040008C5040008C5040008C50400080C
:1000B000C5040008C5040008C5040008C5040008FC
:1000C000C5040008C5040008C5040008C5040008EC
:1000D000C5040008C5040008C5040008C5040008DC
:1000E000C5040008C5040008C5040008000000009D
:1000F0000000000000000000000000000000000000
:0C01000000000000000000005FF808F1A3
:10010C0010B5054C237833B9044B13B10448AFF345
:10011C0000800123237010BD0400002000000000AB
:10012C001005000808B5034B1BB103490348AFF396
:10013C00008008BD00000000080000201005000829
:10014C0010B5234A136823F0070343F0010313602F
:10015C001368A2F58052136843F4803313601D4B6F
:10016C001B6813F4003FFAD01A4A536823F47C132B
:10017C0043F488135360136843F080731360154B7A
:10018C001B6813F0007FFAD0124B5A6822F0F00271
:10019C005A605A6822F4E06242F4A0625A605A68CB
:1001AC0022F460525A605A6822F0030242F00202B2
:1001BC005A60084B5B6803F00C03082BF9D1064C12
:1001CC00204600F00FF9204600F01CF910BD00BFCE
:1001DC000020024000100240006CDC0210B582B01E
:1001EC00224B9A6942F001029A619A6902F001026B
:1001FC000192019ADA6942F08052DA61DB6903F00C
:10020C0080530093009B1A49CA6822F4E0621204DE
:10021C00120C184B1343CB60174B5A6822F0E06258
:10022C005A605A6842F000725A60FFF789FF00F07A
:10023C0027F811E0114B4FF4C0721A610024B4F589
:10024C00FA7F05DA42F2107000F008F90134F6E793
:10025C000A4B4FF4C0725A610024B4F5487FE9DAB6
:10026C0042F2107000F0FAF80134F6E70010024088
:10027C0000ED00E00003FA05000001400008014019
:10028C0000B589B000210791114B9A6942F0200208
:10029C009A619A6902F020020292029A9A6942F0DB
:1002AC0004029A619B6903F004030193019B0948C2
:1002BC004FF4C0734361084B03930123049302234F
:1002CC000593069103A900F012F809B05DF804FB40
:1002DC000010024000080140818001047047FEE7D5
:1002EC00FEE7FEE7FEE77047704770477047F0B5D2
:1002FC000D68C5F30F2595FAA5F2B2FA82F235E036
:10030C00A2F108044FF00113A34043F0806339E0DD
:10031C00C45993FAA3F6B6FA86F6B6004FF0030C5E
:10032C000CFA06F624EA060C93FAA3F6B6FA86F64D
:10033C00B6008C6804FA06F646EA0C06C651CC6880
:10034C0093FAA3FCBCFA8CFC4FEA8C0C4FF0040E15
:10035C000EFA0CFC26EA0C0693FAA3F3B3FA83F319
:10036C009B0004FA03F33343C351013235FA02F311
:10037C0035D0012393402B42F7D0072AC0D840F246
:10038C00011393404E681F0EC45993FAA3FCBCFA98
:10039C008CFC4FEA8C0C4FF00F0E0EFA0CFC24EA7E
:1003AC000C0493FAA3FCBCFA8CFC4FEA8C0C06FAF6
:1003BC000CF63443C451C6681C0A26EA132C94FA72
:1003CC00A4F4B4FA84F40E6906FA04F44CEA0404B6
:1003DC00C4604C68012C9BD0092CC6D198E7002036
:1003EC00F0BD0000054BA3FB00239B09013B044A15
:1003FC00536000239360052313607047D34D621044
:10040C0010E000E0014B1860704700BF00000020B6
:10041C000F4B1A6842F001021A6059680D4A0A40E3
:10042C005A601A6822F0847222F480321A601A68B8
:10043C0022F480221A605A6822F4FE025A604FF4A9
:10044C001F029A60044B4FF000629A60704700BF25
:10045C00001002400000FFF800ED00E0002398427D
:10046C0005DD00BF00BF00BF00BF0133F7E77047D9
:10047C00002103E00B4B5B58435004310A480B4BF3
:10048C0042189A42F6D30A4A02E0002342F8043B8F
:10049C00084B9A42F9D3FFF7BBFF00F00FF8FFF7B8
:1004AC009DFE70473005000800000020040000206D
:1004BC000400002020000020FEE7000070B500269C
:1004CC000C4D0D4C641BA410A64209D100F01AF877
:1004DC0000260A4D0A4C641BA410A64205D170BD1F
:1004EC0055F8043B98470136EEE755F8043B98471E
:1004FC000136F2E728050008280500082805000841
:10050C002C050008F8B500BFF8BC08BC9E46704727
:0C051C00F8B500BFF8BC08BC9E46704754
:040528003101000895
:04052C000D010008B5
:040530000024F400AF
:040000050800047D6E
:00000001FF
